:020000040800F2
:1000000000C0002085510008355000083D50000810
:10001000455000084D5000085550000800000000F1
:1000200000000000000000000000000081BD00088A
:100030005D50000800000000D1BF00086D500008AE
:10004000D551000899500008D5510008D551000835
:10005000D5510008D5510008D5510008D5510008E8
:10006000D5510008D5510008D5510008D5510008D8
:10007000D5510008A5500008D5510008D5510008F9
:10008000D5510008D5510008D5510008D5510008B8
:10009000D5510008D5510008D5510008D5510008A8
:1000A000D5510008D5510008D5510008D551000898
:1000B000D55100080000000000000000D5510008E4
:1000C000D5510008D5510008D5510008D551000878
:1000D000D5510008D5510008B9500008CD5000088E
:1000E000D5510008D55100080000000000000000B4
:1000F0000000000000000000000000000000000000
:1001000000000000D551000800000000D551000893
:100110000000000000000000E1500008D551000878
:10012000D5510008D5510008D5510008D551000817
:10013000D551000800000000000000000000000091
:10014000D5510008D5510008D55100080000000025
:10015000D5510008D5510008D5510008D5510008E7
:10016000D5510008D5510008D55100080000000005
:10017000D5510008D5510008000000000000000023
:0C018000D5510008D5510008D5510008E9
:1001900010B5054C237833B9044B13B10448AFF3C1
:1001A00000800123237010BD6400002000000000C7
:1001B000F4CE000808B5034B1BB103490348AFF365
:1001C000008008BD0000000068000020F4CE000898
:1001D00010F8012B11F8013B012A28BF9A42F7D0F1
:1001E000D01A7047034613F8012B002AFBD1181AC6
:1001F000013870470000000000000000000000000F
:1002000001F0FF01102A2BDB10F0070F08D010F8C7
:10021000013B013A8B422DD010F0070F42B3F6D1CB
:10022000F0B441EA012141EA014122F007047FF0E4
:1002300000070023F0E80256083C85EA010586EA3B
:10024000010685FA47F5A3FA87F586FA47F6A5FA77
:1002500087F68EB9EED1F0BC01F0FF0102F0070283
:1002600032B110F8013B013A83EA010313B1F8D12E
:100270000020704701387047002D06BF354603380F
:10028000073815F0010F07D1013015F4807F02BF48
:10029000013015F4C03F0130F0BC0138704700BF99
:1002A00081F0004102E000BF83F0004330B54FEA27
:1002B00041044FEA430594EA050F08BF90EA020F94
:1002C0001FBF54EA000C55EA020C7FEA645C7FEA27
:1002D000655C00F0E2804FEA5454D4EB5555B8BF4A
:1002E0006D420CDD2C4480EA020281EA030382EABB
:1002F000000083EA010180EA020281EA0303362D4D
:1003000088BF30BD11F0004F4FEA01314FF4801C1F
:100310004CEA113102D0404261EB410113F0004F31
:100320004FEA03334CEA133302D0524263EB4303E8
:1003300094EA050F00F0A780A4F10104D5F1200E86
:100340000DDB02FA0EFC22FA05F2801841F10001E1
:1003500003FA0EF2801843FA05F359410EE0A5F1B5
:1003600020050EF1200E012A03FA0EFC28BF4CF0E6
:10037000020C43FA05F3C01851EBE37101F000459C
:1003800007D54FF0000EDCF1000C7EEB00006EEBA9
:100390000101B1F5801F1BD3B1F5001F0CD3490833
:1003A0005FEA30004FEA3C0C04F101044FEA44528A
:1003B00012F5800F80F09A80BCF1004F08BF5FEA11
:1003C000500C50F1000041EB045141EA050130BDF1
:1003D0005FEA4C0C404141EB0101013C28BFB1F503
:1003E000801FE9D291F0000F04BF01460020B1FA4E
:1003F00081F308BF2033A3F10B03B3F120020CDA21
:100400000C3208DD02F1140CC2F10C0201FA0CF0FE
:1004100021FA02F10CE002F11402D8BFC2F1200C63
:1004200001FA02F120FA0CFCDCBF41EA0C01904019
:10043000E41AA2BF01EB0451294330BD6FEA040462
:100440001F3C1CDA0C340EDC04F11404C4F120024D
:1004500020FA04F001FA02F340EA030021FA04F35F
:1004600045EA030130BDC4F10C04C4F1200220FAB6
:1004700002F001FA04F340EA0300294630BD21FAF4
:1004800004F0294630BD94F0000F83F4801306BFBA
:1004900081F480110134013D4EE77FEA645C18BFAE
:1004A0007FEA655C29D094EA050F08BF90EA020F45
:1004B00005D054EA000C04BF1946104630BD91EA3D
:1004C000030F1EBF0021002030BD5FEA545C05D140
:1004D0004000494128BF41F0004130BD14F580047F
:1004E0003CBF01F5801130BD01F0004545F0FE41F3
:1004F00041F470014FF0000030BD7FEA645C1ABF28
:10050000194610467FEA655C1CBF0B46024650EA5E
:10051000013406BF52EA033591EA030F41F400218A
:1005200030BD00BF90F0000F04BF0021704730B510
:100530004FF4806404F132044FF000054FF00001E5
:1005400050E700BF90F0000F04BF0021704730B5A6
:100550004FF4806404F1320410F0004548BF40427B
:100560004FF000013EE700BF42004FEAE2014FEAD0
:1005700031014FEA02701FBF12F07F4393F07F4FAB
:1005800081F06051704732F07F4208BF704793F0AE
:100590007F4F04BF41F40021704730B54FF46074C1
:1005A00001F0004521F000411CE700BF50EA0102C4
:1005B00008BF704730B54FF000050AE050EA01026D
:1005C00008BF704730B511F0004502D5404261EBDD
:1005D00041014FF4806404F132045FEA915C3FF41E
:1005E000D8AE4FF003025FEADC0C18BF03325FEABB
:1005F000DC0C18BF033202EBDC02C2F1200300FA6C
:1006000003FC20FA02F001FA03FE40EA0E0021FA90
:1006100002F11444BDE600BF53B94AB9002908BF2E
:1006200000281CBF4FF0FF314FF0FF3000F088B9B9
:10063000ADF1080C6DE904CE00F006F8DDF804E039
:10064000DDE9022304B070472DE9F047089D8E468E
:1006500004468846002B4AD18A42174662D9B2FA2C
:1006600082F64EB1C6F1200301FA06F820FA03F330
:10067000B74043EA0808B4404FEA174E1FFA87FC18
:10068000B8FBFEF1230C0EFB118843EA084301FB83
:100690000CF29A4209D9FB1801F1FF3080F0EA8090
:1006A0009A4240F2E78002393B449A1AA3B2B2FB65
:1006B000FEF00EFB102243EA024300FB0CFC9C45BB
:1006C00009D9FB1800F1FF3280F0D6809C4540F23A
:1006D000D3803B44023840EA0140A3EB0C030021E5
:1006E0001DB1F3400022C5E90032BDE8F0878B421E
:1006F00005D90DB1C5E9000100210846F5E7B3FAB7
:1007000083F1002946D1734502D3824200F205816C
:10071000841A6EEB030201209046002DE5D0C5E956
:100720000048E2E7002A00F09080B2FA82F6002E3C
:1007300040F0A4808A1A030C4FEA174E80B2BCB274
:100740000121B2FBFEFC0EFB1C2243EA024304FB28
:100750000CF29A4207D9FB180CF1FF3802D29A42E8
:1007600000F2E080C4469B1AB3FBFEF20EFB12338C
:1007700040EA034302FB04F49C4207D9FB1802F150
:10078000FF3002D29C4200F2CA8002461B1B42EAA2
:100790000C40A5E7C1F120068B4022FA06F71F4363
:1007A0000EFA01F420FA06F32EFA06FE4FEA174974
:1007B000234300FA01F81FFA87FCBEFBF9F01C0C7A
:1007C00009FB10EE44EA0E4400FB0CFEA64502FABB
:1007D00001F209D93C1900F1FF3A80F09C80A6454E
:1007E00040F2998002383C44A4EB0E041FFA83FEC9
:1007F000B4FBF9F309FB13444EEA044403FB0CFC7D
:10080000A44508D93C1903F1FF3E80F08280A4453D
:100810007FD9023B3C4443EA0040A4EB0C04A0FB1C
:1008200002EC64457346E14662D35FD05DB1B8EB3C
:10083000030264EB090404FA06F622FA01F31E43EC
:10084000CC40C5E9006400214FE7B1FBF2FC010C8C
:1008500041EA0E4180B240EA01423B4638463C46FE
:10086000B846BE462026B1FBF7F1A2EB080241EAEA
:100870000C4166E7014618E710462CE7C6F1200256
:100880002EFA02F3B740B14020FA02F24FEA174EB7
:100890000A43B3FBFEF8BCB20EFB1833110C41EA5D
:1008A000034108FB04F9B04089454FEA104380B288
:1008B0003ED9791808F1FF3C01D289451FD8A1EB38
:1008C0000901B1FBFEF909FB04F80EFB191192B204
:1008D00042EA0142424529D2BA1809F1FF31C4D295
:1008E0004245C2D2A9F102013A44BEE7F0459DD289
:1008F000BEEB02036CEB070C0138E14696E7A7EB71
:1009000009094944A8F1020CB1FBFEF909FB04F8FE
:10091000DBE773467FE7504666E70846FDE63B4463
:10092000023A33E7ACF1020C3B441CE749469CE732
:10093000A1EB0901C446B1FBFEF909FB04F8C4E7C9
:10094000704700BF80B487B000AFF860B9607A60CC
:10095000FB685B687A689A4201D800231CE0FB6858
:100960005A68511CFB68596013469B0013449B0056
:100970001A46BB6813447B617B694FF0FF329A6073
:100980007B699A687B695A607B690022DA607B69BF
:100990004FF0FF321A617B6918461C37BD465DF87F
:1009A000047B704780B485B000AFF8607A603B602C
:1009B0000B46FB72FB68FA7A1A70FB687A685A6019
:1009C000FB683A689A60FB680022DA6000BF14375F
:1009D000BD465DF8047B704780B586B000AFF86017
:1009E000B9607A603B60FB681B687B613FE0FB6835
:1009F0001B68BA6813441B787D2B45D07D2B1CDC0B
:100A00005D2B41D05D2B18DC3A2B16DC202B04DA51
:100A10000A2B10DC092B37DA0FE0203B334A22FA8D
:100A200003F303F00103002B14BF01230023DBB207
:100A3000002B29D101E00D2B26D000BFFB681B68DD
:100A4000BA6813441B781F2B06D9FB681B68BA6869
:100A500013441B787E2B05D97A69FB681A606FF006
:100A600001033EE0FB681B685A1CFB681A60FB68C8
:100A70001B687A689A4209D9FB681B68BA681344F4
:100A80001B78002BB3D101E000BF00E000BF3B6842
:100A9000002B06D1FB681B685A1EFB681A600023F6
:100AA0001FE03A6A3968F868FFF74CFF38613B6924
:100AB000002B05D17A69FB681A604FF0FF3310E014
:100AC000FB681B687A6908213869FFF76BFFFB68D0
:100AD0009A683B691A61FB681B685A1EFB681A60BA
:100AE000002318461837BD4680BD00BF0110000422
:100AF00080B588B000AFF860B9607A603B60FB6891
:100B00001B68BB61FB681B685A1CFB681A60BEE06F
:100B1000FB681B68BA6813441B78FB75FB7D222BAE
:100B200021D13B68002B01D10023C2E0BA6A3968A9
:100B3000F868FFF707FF38613B69002B05D1BA69F8
:100B4000FB681A604FF0FF33B3E0BB695A1CFB68C7
:100B50001B6804213869FFF725FFFB689A683B6929
:100B60001A610023A5E0FB7D5C2B40F08B80FB68C5
:100B70001B6801337A689A4240F28480FB681B68E4
:100B80005A1CFB681A60FB681B68BA6813441B7820
:100B9000752B70DC5C2B04DA222B72D02F2B70D0DB
:100BA00069E05C3B01229A40444B1340002B14BF88
:100BB00001230023DBB2002B63D102F00073002B72
:100BC00014BF01230023DBB2002B54D0FB681B6849
:100BD0005A1CFB681A600023FB6137E0FB681B6846
:100BE000BA6813441B782F2B06D9FB681B68BA68B8
:100BF00013441B78392B21D9FB681B68BA6813444E
:100C00001B78402B06D9FB681B68BA6813441B7815
:100C1000462B13D9FB681B68BA6813441B78602BFA
:100C200006D9FB681B68BA6813441B78662B05D984
:100C3000BA69FB681A606FF001033AE0FB681B6851
:100C40005A1CFB681A60FB690133FB61FB69032BCB
:100C50000BDCFB681B687A689A4206D9FB681B6844
:100C6000BA6813441B78002BB8D1FB681B685A1E66
:100C7000FB681A6006E0BA69FB681A606FF001034E
:100C800017E000BFFB681B685A1CFB681A60FB6812
:100C90001B687A689A4207D9FB681B68BA681344D4
:100CA0001B78002B7FF434AFBA69FB681A606FF0D1
:100CB000020318462037BD4680BD00BF41044401F1
:100CC00080B483B000AF78607B6800221A607B68D4
:100CD00000225A607B684FF0FF329A6000BF0C37E9
:100CE000BD465DF8047B704780B58CB002AFF860FC
:100CF000B9607A603B60FB685B68FB616EE1FB6832
:100D00001B68BA6813441B78FB76FB7E7D2B75D07D
:100D10007D2B00F32A817B2B30D07B2B00F32581A8
:100D20005D2B6BD05D2B00F320815B2B26D05B2BE2
:100D300000F31B813A2B00F0E1803A2B00F3158180
:100D40002C2B00F0E2802C2B00F30F81202B11DCE8
:100D5000092BC0F20A81093B9A4A22FA03F303F0F5
:100D60000103002B14BF01230023DBB2002B40F052
:100D70002381FAE0222B00F09A80F6E0FB69013330
:100D8000FB613B68002B00F019813A6B3968F86809
:100D9000FFF7D8FD38623B6A002B02D14FF0FF33DA
:100DA00053E1FB689B68B3F1FF3F13D0FB689B687E
:100DB0001A4613469B0013449B001A463B68134493
:100DC0007B617B69DB685A1C7B69DA60FB689A6827
:100DD0003B6A1A61FB7E7B2B01D1012200E00222DB
:100DE0003B6A1A70FB681B681A463B6A5A60FB68CC
:100DF0005B68013B1A46FB689A60EAE03B68002B9F
:100E000000F0DE80FB7E7D2B01D1012300E0022378
:100E1000BB76FB685B68002B02D16FF0010314E125
:100E2000FB685A6813469B0013449B00143B3A68C6
:100E300013443B623B6A5B68B3F1FF3F17D03B6AE8
:100E40009B68B3F1FF3F12D13B6A1B78BA7E9A428E
:100E500002D06FF00103F8E0FB681B6801331A460B
:100E60003B6A9A603B6A1A69FB689A601EE03B6ABB
:100E70001B69B3F1FF3F0CD13B6A1B78BA7E9A42E3
:100E800004D1FB689B68B3F1FF3F0ED16FF0010303
:100E9000DBE03B6A1B691A4613469B0013449B0028
:100EA0001A463B6813443B62C4E700BF91E03B6BCA
:100EB00000933B687A68B968F868FFF719FE3861F3
:100EC0003B69002B01DA3B69BFE0FB690133FB6141
:100ED000FB689B68B3F1FF3F76D03B68002B73D073
:100EE000FB689B681A4613469B0013449B001A46F6
:100EF0003B681344DA680132DA6065E0FB685B68DE
:100F0000013B1A46FB689A6063E03B68002B5DD0AA
:100F1000FB689B68B3F1FF3F58D0FB689B681A469B
:100F200013469B0013449B001A463B6813441B78EE
:100F3000022B4BD0FB689B681A4613469B00134458
:100F40009B001A463B6813441B78012B3ED0FB687C
:100F50009B681A4613469B0013449B001A463B6845
:100F600013441A69FB689A6030E03B6B00933B685E
:100F70007A68B968F868FFF72FFD38613B69002B84
:100F800001DA3B6961E0FB690133FB61FB689B6847
:100F9000B3F1FF3F1CD03B68002B19D0FB689B6866
:100FA0001A4613469B0013449B001A463B681344A1
:100FB000DA680132DA600BE000BF0AE000BF08E047
:100FC00000BF06E01300800000BF02E000BF00E0A9
:100FD00000BFFB681B685A1CFB681A60FB681B6833
:100FE0007A689A4207D9FB681B68BA6813441B7871
:100FF000002B7FF484AE3B68002B25D0FB685B6838
:10100000013B7B621DE07A6A13469B0013449B0000
:101010001A463B6813445B68B3F1FF3F0ED07A6A0F
:1010200013469B0013449B001A463B6813449B687D
:10103000B3F1FF3F02D16FF0020306E07B6A013B90
:101040007B627B6A002BDEDAFB6918462837BD46D7
:1010500080BD00BF80B584B000AFF860B9607A6031
:10106000BB681B78042B1ED17868FFF7BBF80346DA
:101070001946BB689A68BB685B68D31A994212D15B
:10108000BB685B681A46FB689818BB689A68BB68BF
:101090005B68D31A1A4679680BF04AFB0346002BAB
:1010A00001D1002301E04FF0FF3318461037BD4651
:1010B00080BD2DE9B00F8FB000AFF861B9617A61E2
:1010C00000233B63BB695B687B630FE07B6BFA6962
:1010D0001344197807F120023B6B13440A461A7037
:1010E0007B6B01337B633B6B01333B63BB699B6869
:1010F0007A6B9A42EADB07F120023B6B1344002231
:101100001A7007F120031B78002B01D100235DE04A
:1011100079694FF000024FF00003C1E9002300237A
:10112000FB6248E007F12002FB6A13441B782F2B77
:1011300006D907F12002FB6A13441B78392B01D929
:10114000002343E07B69D3E9008942464B464FF0D8
:1011500000004FF00001990041EA927190000246B0
:101160000B4612EB080443EB090523193B6045EBE2
:1011700005037B60D7E9004522462B467969C1E922
:1011800000237B69D3E9002307F12000F96A0144B9
:1011900009783039C8178A46834612EB0A01B960CC
:1011A00043EB0B03FB607B69D7E90212C3E9001232
:1011B000FB6A0133FB6207F12002FB6A13441B78D0
:1011C000002B02D0FB6A0A2BACDD012318463C370A
:1011D000BD46BDE8B00F704780B489B000AFF8607D
:1011E000B9607A60BB689A68BB685B68D31AFB61B8
:1011F000FB69002B01DA002328E01F233B61FA6919
:101200003B699A4201DD3B69FB6100237B61BB685E
:101210005B68BB610DE0BB69FA681A447B69796859
:101220000B4412781A70BB690133BB617B690133CF
:101230007B61BB685A68FB691344BA699A42EADB6E
:101240007B697A68134400221A70012318462437F8
:10125000BD465DF8047B704780B582B000AF786012
:101260007B68002B01D100235AE02F497868FEF7F4
:10127000AFFF0346002B01D1012351E02B497868D1
:10128000FEF7A6FF0346002B01D1022348E02849C0
:101290007868FEF79DFF0346002B01D103233FE052
:1012A00024497868FEF794FF0346002B01D10423FC
:1012B00036E021497868FEF78BFF0346002B01D109
:1012C00005232DE01D497868FEF782FF0346002BB9
:1012D00001D1072324E01A497868FEF779FF034615
:1012E000002B01D108231BE016497868FEF770FF38
:1012F0000346002B01D1092312E013497868FEF759
:1013000067FF0346002B01D1062309E00F497868E7
:10131000FEF75EFF0346002B01D10A2300E0002305
:1013200018460837BD4680BD0CCF00081CCF00080A
:101330002CCF00083CCF000844CF000854CF000851
:1013400060CF00086CCF00087CCF000884CF000875
:1013500080B483B000AF0346FB71FB79013B062BE1
:101360001ED801A252F823F0851300088913000843
:101370008D130008911300089513000899130008B5
:101380009D1300080A4B0CE00A4B0AE00A4B08E0E8
:101390000A4B06E00A4B04E00A4B02E00A4B00E06D
:1013A0000A4B18460C37BD465DF8047B704700BFFA
:1013B00094CF0008A4CF0008B4CF0008C8CF00081D
:1013C000D8CF0008E8CF0008F4CF000804D0000808
:1013D00080B483B000AF0346FB71FB79632B00F24E
:1013E0000D8101A252F823F0791500087D1500083F
:1013F000FD150008FD150008FD150008FD15000885
:10140000FD150008FD150008FD150008FD15000874
:10141000891500088D15000891150008951500081C
:10142000991500089D150008A1150008A5150008CC
:10143000A9150008FD150008FD150008FD15000898
:10144000FD150008FD150008FD150008FD15000834
:10145000FD150008FD150008FD150008FD15000824
:10146000AD150008B1150008B5150008B91500083C
:10147000BD150008C1150008C5150008C9150008EC
:10148000CD150008D1150008D5150008D91500089C
:10149000FD150008FD150008FD150008FD150008E4
:1014A000FD150008FD150008FD150008FD150008D4
:1014B000DD150008E1150008E5150008E91500082C
:1014C000ED150008F1150008FD150008FD150008D0
:1014D000FD150008FD150008F5150008F9150008B0
:1014E000FD150008FD150008FD150008FD15000894
:1014F000FD150008FD150008FD150008FD15000884
:10150000FD150008FD150008FD150008FD15000873
:10151000FD150008FD150008FD150008FD15000863
:10152000FD150008FD150008FD150008FD15000853
:10153000FD150008FD150008FD150008FD15000843
:10154000FD150008FD150008FD150008FD15000833
:10155000FD150008FD150008FD150008FD15000823
:10156000FD150008FD150008FD150008FD15000813
:101570008115000885150008244B40E0244B3EE00F
:10158000244B3CE0244B3AE0244B38E0244B36E03B
:10159000244B34E0244B32E0244B30E0244B2EE04B
:1015A000244B2CE0244B2AE0244B28E0244B26E05B
:1015B000244B24E0244B22E0244B20E0244B1EE06B
:1015C000244B1CE0244B1AE0244B18E0244B16E07B
:1015D000244B14E0244B12E0244B10E0244B0EE08B
:1015E000244B0CE0244B0AE0244B08E0244B06E09B
:1015F000244B04E0244B02E0244B00E0064B184649
:101600000C37BD465DF8047B704700BF10D0000862
:1016100014D0000818D000088CCF000824D000088F
:1016200030D000083CD0000848D0000854D0000852
:1016300060D0000870D0000880D0000890D000086A
:10164000A0D00008A8D00008B4D00008C0D000087E
:10165000D0D00008E0D00008F4D0000804D1000881
:1016600014D1000828D100083CD1000850D100084E
:1016700064D1000870D1000880D1000890D1000822
:10168000A4D10008B4D10008C8D10008D0D1000806
:1016900080B500AF03F09FFD00F0A4F800F0ECF976
:1016A00000F0CCF900F0F4F800F068F900F096F9D9
:1016B00000F02EF93A4806F009FA002210214FF006
:1016C000904004F029FB00220121364804F024FB5D
:1016D0004FF400623449354807F0A3FF0022082187
:1016E000304804F019FB002210212E4804F014FBAE
:1016F000002220212B4804F00FFB00224021294822
:1017000004F00AFB00228021264804F005FB002299
:101710004FF48071234804F0FFFA254803F0D2FA11
:101720000123204A2149234800F0D0FD10234FF027
:1017300090422149214800F0C9FD002200211C48A7
:1017400003F03CFA01224FF400511D4804F0E4FA82
:10175000012204211A4804F0DFFA01220821184866
:1017600004F0DAFA07F0E6FF164A0121012008F03A
:10177000D8F80346144A1360144A0021144808F0AC
:1017800023F80346134A1360134A0021134808F054
:101790001BF80346124A136007F0F0FF00BFFDE795
:1017A0009C030020000400486C4E002070040020C0
:1017B00048030020604E0020E8030020544E002023
:1017C00000080048ACD60008004E002064D600088F
:1017D000551E00084005002088D60008B1220008E8
:1017E000A045002080B596B000AF07F11403442255
:1017F000002118460AF094FF3B4600221A605A6006
:101800009A60DA601A614FF4007004F029FF034611
:10181000002B01D000F054FD04F0FCFE1B4BD3F86C
:1018200090301A4A23F01803C2F8903014237B61D9
:101830000123FB610123FB6200233B6360237B6385
:101840000023FB6307F11403184604F095FF0346D9
:10185000002B01D000F034FD0F233B6000237B60A0
:101860000023BB600023FB6000233B613B4600215B
:10187000184605F095FB0346002B01D000F020FD33
:1018800005F0CAFF00BF5837BD4680BD00100240BA
:1018900080B500AF1B4B1C4A1A601A4B1B4A5A609A
:1018A000184B00229A60174B0122DA60154B4FF457
:1018B00000421A61134B00225A61124B00229A61B6
:1018C000104B0022DA610F4B00221A620D4804F01F
:1018D0003BFA0346002B01D000F0F2FC002109483E
:1018E00004F000FE0346002B01D000F0E9FC0021CB
:1018F000044804F042FE0346002B01D000F0E0FC57
:1019000000BF80BD48030020005C0040140D1000A3
:1019100080B584B000AF3B1D00221A605A609A6007
:10192000144B154A1A60134B03225A60114B0022C4
:101930009A60104B40F2E732DA600E4B00229A6157
:101940000C4806F06BF80346002B01D000F0B8FC01
:1019500000237B600023FB603B1D1946054806F011
:10196000A3FA0346002B01D000F0AAFC00BF1037F9
:10197000BD4680BD9C0300200010004080B500AF34
:10198000144B154A1A60134B4FF416525A60114B00
:1019900000229A600F4B0022DA600E4B00221A617F
:1019A0000C4B0C225A610B4B00229A61094B00220E
:1019B000DA61084B00221A62064B00225A6205487F
:1019C00006F0F6FA0346002B01D000F079FC00BFC8
:1019D00080BD00BFE80300200044004080B500AF98
:1019E000144B154A1A60134B4FF416525A60114BA0
:1019F00000229A600F4B0022DA600E4B00221A611F
:101A00000C4B0C225A610B4B00229A61094B0022AD
:101A1000DA61084B00221A62064B00225A6205481E
:101A200006F0C6FA0346002B01D000F049FC00BFC7
:101A300080BD00BF700400200048004080B582B027
:101A400000AF0C4B9B6C0B4A43F001039364094BB2
:101A50009B6C03F001037B607B68002205210D2055
:101A600003F009FD0D2003F022FD00BF0837BD463D
:101A700080BD00BF0010024080B588B000AF07F104
:101A80000C0300221A605A609A60DA601A61714B86
:101A9000DB6C704A43F00403D3646E4BDB6C03F0E1
:101AA0000403BB60BB686B4BDB6C6A4A43F0010309
:101AB000D364684BDB6C03F001037B607B68654B90
:101AC000DB6C644A43F00203D364624BDB6C03F0CB
:101AD00002033B603B68002242F20C015E4804F0C6
:101AE0001BF90022F0214FF0904004F015F900227C
:101AF00040F2F911594804F00FF942F20C03FB606F
:101B000001233B6100237B610023BB6107F10C03D0
:101B10001946514803F086FF1023FB6001233B6107
:101B200002237B610023BB6107F10C0319464FF0D0
:101B3000904003F077FFE023FB6001233B6100232B
:101B40007B610023BB6107F10C0319464FF0904005
:101B500003F068FF0123FB6001233B6102237B61EB
:101B60000023BB6107F10C0319463C4803F05AFF00
:101B700041F60243FB604FF444133B6100237B6159
:101B800007F10C031946354803F04CFF42F20403F9
:101B9000FB6000233B6100237B6107F10C031946C6
:101BA0002E4803F03FFF4FF44043FB6000233B61AE
:101BB00001237B6107F10C031946284803F032FF2B
:101BC0004FF4A073FB6000233B6100237B6107F1AE
:101BD0000C031946204803F025FF4FF42073FB60E7
:101BE0004FF444133B6100237B6107F10C0319465A
:101BF000194803F017FF4FF4E063FB6000233B61DB
:101C000001237B6107F10C0319464FF0904003F06C
:101C100009FF4FF40063FB6000233B6100237B61FD
:101C200007F10C0319464FF0904003F0FBFE4FF410
:101C3000FC73FB6001233B6100237B610023BB61DC
:101C400007F10C031946054803F0ECFE00BF2037EE
:101C5000BD4680BD00100240000800480004004856
:101C600080B584B000AF78607B681B68474A9342B8
:101C700040F08880464B1B680133454A1360454B52
:101C80001B78DBB2002B10D0414B1A68424B1B680B
:101C9000D31A002B09DB414B1B78DBB219464048B5
:101CA00002F096FE3B4B00221A703E4B1B78DBB2D3
:101CB000002B68D0364B1A683B4B1B68D31A002B9D
:101CC00061DB3A4B1B78DBB2012B29D1384B1B78F7
:101CD000DBB21946324802F07BFE364B1B78DBB292
:101CE0001A46354B1B78DBB2013B9A4206DB2D4B83
:101CF00000221A702D4B00221A7044E02D4B1B78E5
:101D0000DBB21A462D4B53F82230FB60274B0222E0
:101D10001A701F4B1A68FB681344234A136032E0A1
:101D2000224B1B78DBB2022B2DD1224B1B78DBB26E
:101D30000133DAB21F4B1A701E4B1B78DAB21E4BFE
:101D40001B78DBB29A4206D3164B00221A70174B4F
:101D500000221A7017E0164B1B78DBB219461048A8
:101D600002F00CFE114B01221A70124B1B78DBB2F1
:101D70001A46134B53F82220054B1B6813440A4A9A
:101D8000136000E000BF1037BD4680BD001000406A
:101D9000705600207456002078560020755600209A
:101DA000480300207C560020845600207E560020E8
:101DB0007D5600207F56002080560020B05600201F
:101DC0008856002080B483B000AF78600B467B80DB
:101DD0007B681B68074A934205D1074A7B881380BA
:101DE000064B00221A8000BF0C37BD465DF8047B0D
:101DF000704700BF004800406C5600206E5600201F
:101E000080B588B000AF78607B681B78002B1AD053
:101E10007B681B781846FFF79BFA024607F10C0314
:101E2000114618460AF0D2FC07F10C031846FEF7DB
:101E3000D9F903469AB207F10C014FF0FF33044879
:101E400000F060FA00E000BF2037BD4680BD00BF53
:101E5000604E002080B5ADF6487D02AF07F5746393
:101E6000A3F63C731860C94B1B88B3F5FA7FC0F02A
:101E70001182C74B1B88002B00F00C82C34B002241
:101E80001A80C44806F075F9002387F82B3F07F63F
:101E90002C731846FEF714FFBF48FEF7A3F902465D
:101EA00007F1280307F62C70C0210091BA49FEF70C
:101EB0001BFF034687F83E3F012387F83F3F44E07E
:101EC00097F83F2F07F57463A3F6187113469B002C
:101ED00013449B000B441B78042B31D197F83F2F00
:101EE00007F1280113469B0013449B000B44AB4AA7
:101EF0001946A948FFF7AEF80346002B20D197F802
:101F00003F3F5A1C07F1280113469B0013449B00D6
:101F10000B44C7F8383FD7F8383F9A68D7F8383FAE
:101F20005B68D21AD7F8383F5B6819469A4B0B4466
:101F300007F1080000931346994A20210AF0BAFBE2
:101F400097F83F3F013387F83F3F97F83F2F97F8C7
:101F50003E3F9A42B4D307F108031846FFF77CF9D5
:101F6000034687F83D3F97F83D3F0A2B00F27B81FF
:101F700001A252F823F000BFA51F0008AD1F000802
:101F8000F91F0008512000089D2000086722000862
:101F9000E920000841210008B5210008FF210008C0
:101FA00067220008012387F82B3F5CE17A4800F0A4
:101FB000CDF997F83E1F07F128004FF40063794AE6
:101FC00000F018FD034687F82B3F97F82B3F002BB6
:101FD00040F03A817348FEF705F903469AB24FF094
:101FE000FF337049704800F08DF94FF40062002112
:101FF0006C480AF095FB27E1674800F0A7F997F8CD
:102000003E1F07F128004FF40063664A01F024FAEE
:10201000034687F82B3F97F82B3F002B40F01681A3
:102020006048FEF7DFF803469AB24FF0FF335D4990
:102030005D4800F067F94FF40062002159480AF04A
:102040006FFB5A4B1B781946594802F0C1FCFDE062
:10205000514800F07BF997F83E1F07F128004FF434
:102060000063504A01F07CFC034687F82B3F97F849
:102070002B3F002B40F0EC804A48FEF7B3F80346B4
:102080009AB24FF0FF334749474800F03BF94FF40D
:102090000062002143480AF043FBD9E03E4800F0CB
:1020A00055F997F83E1F07F128004FF400633D4AA9
:1020B00002F00AFC034687F82B3F97F82B3F002BD2
:1020C00040F0C8803748FEF78DF803469AB24FF0CB
:1020D000FF333449344800F015F94FF40062002111
:1020E00030480AF01DFBB5E02B4800F02FF997F8B7
:1020F0003E1F07F128004FF400632A4A01F034F82C
:10210000034687F82B3F97F82B3F002B40F0A48025
:102110002448FEF767F803469AB24FF0FF3321498F
:10212000214800F0EFF84FF4006200211D480AF04A
:10213000F7FA1E4B1B7819461D4802F01FFC8BE076
:10214000154800F003F997F83E1F07F128004FF4F7
:102150000063144A01F02CFD034687F82B3F97F8E3
:102160002B3F002B7AD10F48FEF73CF803469AB27A
:102170004FF0FF330B490C4800F0C4F84FF40062F5
:10218000002108480AF0CCFA68E000BF6E56002033
:102190006C560020700400206C4E002004D2000811
:1021A00008D20008D8560020604E00200000002011
:1021B00048030020394800F0C9F897F83E1F07F19E
:1021C00028004FF40063364A01F0A4FE034687F866
:1021D0002B3F97F82B3F002B42D13148FEF702F8F6
:1021E00003469AB24FF0FF332D492E4800F08AF88B
:1021F0004FF4006200212A480AF092FA30E02748A2
:1022000000F0A4F897F83E1F07F128004FF4006390
:10221000234A02F01DF8034687F82B3F97F82B3F1F
:10222000002B1FD11E48FDF7DDFF03469AB24FF089
:10223000FF331B491B4800F065F84FF40062002192
:1022400017480AF06DFA0DE000BF0CE000BF0AE08D
:1022500000BF08E000BF06E000BF04E000BF02E0EE
:1022600000BF00E000BF07F62B731846FFF7C8FD5C
:10227000002387F82B3F4FF40062002107480AF043
:102280004FFA094B00221A804FF4006203490748B5
:1022900007F0C7F9C82007F029FBE4E56C4E0020E1
:1022A000D8560020604E00206C560020700400209C
:1022B00080B485B000AF78600023FB7300BFFDE7FA
:1022C00080B400AF72B600BF00BFFDE780B584B038
:1022D00000AFF860B9607A607B80FB68BA681A600A
:1022E000FB687A685A60FB687A881A81FB685868CC
:1022F000FB681B890022194603F00EFD00BF103752
:10230000BD4680BD80B584B000AFF860B9603B6069
:102310001346FB80FB685868FB681B89012219463D
:1023200003F0FAFCFB681868FA883B68B96805F0A6
:102330008DFEFB685868FB681B890022194603F074
:10234000EBFC00BF1037BD4680BD000080B483B0F9
:1023500000AF7860044A7B68136000BF0C37BD464D
:102360005DF8047B704700BFD861002080B586B05F
:1023700000AF7860396000237B6101233B6127E077
:10238000184B18683A6913469B0013449B001A4681
:102390007B681344144A1946FEF75CFE0346002B83
:1023A00013D1104B18683B695A1C13469B00134409
:1023B0009B001A467B68134407F108021946FEF792
:1023C00078FED7E9022313467B613B6901333B6109
:1023D0003A693B689A42D3DB7B6918461837BD4699
:1023E00080BD00BFD861002010D2000880B483B047
:1023F00000AF0346FB71FB79032B13D801A252F8FF
:1024000023F000BF15240008192400081D2400082B
:1024100021240008074B06E0074B04E0074B02E0CD
:10242000074B00E0074B18460C37BD465DF8047BB0
:10243000704700BF14D2000818D2000828D2000844
:1024400030D2000838D2000880B582B000AF786082
:1024500039607B68002B02D03B68002B01D1002340
:10246000F0E07A497868FDF7B3FE0346002B04D10B
:102470003B6801221A700123E4E075497868FDF792
:10248000A7FE0346002B04D13B6802221A700123E9
:10249000D8E070497868FDF79BFE0346002B04D115
:1024A0003B6803221A700123CCE06B497868FDF782
:1024B0008FFE0346002B04D13B6804221A700123CF
:1024C000C0E066497868FDF783FE0346002B04D11F
:1024D0003B6805221A700123B4E061497868FDF772
:1024E00077FE0346002B04D13B6806221A700123B5
:1024F000A8E05C497868FDF76BFE0346002B04D129
:102500003B6807221A7001239CE057497868FDF761
:102510005FFE0346002B04D13B6808221A7001239A
:1025200090E052497868FDF753FE0346002B04D132
:102530003B6809221A70012384E04D497868FDF751
:1025400047FE0346002B04D13B680A221A70012380
:1025500078E048497868FDF73BFE0346002B04D13C
:102560003B680B221A7001236CE043497868FDF741
:102570002FFE0346002B04D13B680C221A70012366
:1025800060E03E497868FDF723FE0346002B04D146
:102590003B680D221A70012354E039497868FDF731
:1025A00017FE0346002B04D13B680E221A7001234C
:1025B00048E034497868FDF70BFE0346002B04D150
:1025C0003B680F221A7001233CE02F497868FDF721
:1025D000FFFD0346002B04D13B6810221A70012333
:1025E00030E02A497868FDF7F3FD0346002B04D15B
:1025F0003B6811221A70012324E025497868FDF711
:10260000E7FD0346002B04D13B6812221A70012318
:1026100018E020497868FDF7DBFD0346002B04D164
:102620003B6813221A7001230CE01B497868FDF700
:10263000CFFD0346002B04D13B6814221A700123FE
:1026400000E0002318460837BD4680BD40D2000890
:1026500044D2000848D200084CD2000850D20008EA
:1026600054D2000858D200085CD2000860D200089A
:1026700064D200086CD2000874D200087CD2000832
:1026800084D200088CD2000890D2000894D20008AE
:1026900098D200089CD20008A0D20008B0B58CB037
:1026A00004AFF860B9607A60374B1B68002B65DDBA
:1026B000364B1B680F335A4203F00F0302F00F0230
:1026C00058BF53427B617B692C2202FB03F3304AE3
:1026D00013443B613B691B78002B09D02B4B1B68D3
:1026E000013B2A4A1360284B1B68013B264A1360B2
:1026F000284BFB610023BB611FE0BA6913465B00F6
:1027000013441B01244A13443A6911461846FDF745
:102710005FFD0346002B0DD11F49BA6913465B00CC
:1027200013441B010B4420331B781846FFF75EFE51
:10273000F86105E0BB690133BB61BB690F2BDCDDD0
:102740003C693B6993F820301846FEF741FE054688
:102750003B6993F821301846FEF73AFE02463B6982
:102760005B6A039302920195FB69009323460B4A2F
:102770007968B86809F09EFF002301E04FF0FF334D
:1027800018462037BD46B0BD44030020400300205A
:102790008000002038D20008D85E0020A4D20008B3
:1027A000F0B591B004AFF860B9607A60FB68002BB7
:1027B00000F00B81BB68002B00F00781854B1B6884
:1027C0007A689A4202DD834B1B687B607B68052B2D
:1027D00001DD05237B607B68002B05DC7E4AB96840
:1027E000F86809F067FFF1E00023FB62BB68BB6299
:1027F000FA68FB6A1344794AB96A184609F05AFF25
:10280000B861BB69002BC0F2D980BB69BA6A9A4231
:1028100040F2D480BB69FA6A1344FB62BA68FB6A6F
:10282000D31ABB6200237B628EE06D4B1B685A1E7D
:102830007B6AD31A10335A4203F00F0302F00F02DF
:1028400058BF53427B617B692C2202FB03F3654A2C
:1028500013443B61644B3B620023FB6129E0634905
:10286000FA6913465B0013441B010B441B78002BD1
:102870001CD0FA6913465B0013441B015B4A1344E6
:102880003A6911461846FDF7A3FC0346002B0DD10B
:102890005649FA6913465B0013441B010B4420336D
:1028A0001B781846FFF7A2FD386205E0FB6901338B
:1028B000FB61FB690F2BD2DD7B6A002B12DDBB6A4B
:1028C000012B47D9FB6A5A1CFA62FA6813442C227E
:1028D0001A70FA68FB6A134400221A70BA68FB6A1D
:1028E000D31ABB62FA68FB6AD4183D693B6993F856
:1028F00020301846FEF76CFD06463B6993F8213000
:102900001846FEF765FD02463B695B6A0393029237
:1029100001963B6A00932B46354AB96A204609F076
:10292000C9FEB861BB69002B16DBBB69BA6A9A4263
:1029300012D9BB69FA6A1344FB62BA68FB6AD31AFC
:10294000BB627B6A01337B627A6A7B689A42FFF6DC
:102950006CAF02E000BF00E000BFBB6A012B0CD9E6
:10296000FB6A5A1CFA62FA6813445D221A70FA680C
:10297000FB6A134400221A7004E0174AB968F86829
:1029800009F098FE134B1A687B68D31A114A13603A
:10299000104B1B68002B02DA0E4B00221A60104B02
:1029A0001A687B68D31A10335A4203F00F0302F0FF
:1029B0000F0258BF53420A4A136007E000BF064A9D
:1029C000B968F86809F076FE00E000BF3437BD460C
:1029D000F0BD00BF44030020E4D20008E8D20008A4
:1029E000400300208000002038D20008D85E00207C
:1029F000ECD2000880B5B0B000AFF860B9607A6082
:102A00003B60C54B1B68002B05D0FB68002B02D038
:102A1000BB68002B01DC042398E3BB68C7F898303F
:102A2000002387F8BF300023C7F8B8300123C7F868
:102A3000B43030E0B84B1868D7F8B42013469B0088
:102A400013449B001A46FB681344B44A1946FEF728
:102A500001FB0346002B19D1AF4B1868D7F8B430EF
:102A60005A1C13469B0013449B001A46FB681344F0
:102A700007F178021946FEF71CFBD7E91E2313461F
:102A8000C7F8B830012387F8BF300AE0D7F8B43070
:102A90000133C7F8B430D7F8B420D7F898309A4249
:102AA000C8DB97F8BF30002B01D101234EE34FF074
:102AB000FF33C7F8B0300123C7F8AC3029E0964B9C
:102AC0001868D7F8AC2013469B0013449B001A46A5
:102AD000FB681344924A1946FEF7BCFA0346002BE2
:102AE00012D1D7F8AC305A1C13469B0013449B00FC
:102AF0001A46FB6813441B78022B05D1D7F8AC307B
:102B00000133C7F8B0300AE0D7F8AC300133C7F86A
:102B1000AC30D7F8AC20D7F898309A42CFDBD7F852
:102B2000B030B3F1FF3F01D101230FE3D7F8B0205C
:102B300013469B0013449B001A46FB681344DB6852
:102B4000C7F8A830D7F8A830102B02DD1023C7F83B
:102B5000A830D7F8B0300133C7F8A4300023C7F845
:102B6000A030E4E2D7F8A420D7F898309A4280F257
:102B7000E582D7F8A42013469B0013449B001A4615
:102B8000FB6813441B78012B40F0D882D7F8A420AF
:102B900013469B0013449B001A46FB681344DB68F2
:102BA000C7F89430D7F8A4300133C7F89030D7F87D
:102BB000A02013465B0013441B015A4A1344C7F874
:102BC0008C3030220021D7F88C0009F0A9FD0023B9
:102BD000C7F89C3096E2D7F89C305B00D7F890207D
:102BE0001344C7F88830D7F89C305A00D7F8903093
:102BF00013440133C7F88430D7F88820D7F89830C9
:102C00009A4280F28682D7F88420D7F898309A4288
:102C100080F27F82404B1868D7F8882013469B00CB
:102C200013449B001A46FB6813443F4A1946FEF7BB
:102C300011FA0346002B10D1374B1868D7F88420BF
:102C400013469B0013449B001A46FB681344D7F8B5
:102C50008C201946FEF7C0FA4FE22F4B1868D7F8C0
:102C6000882013469B0013449B001A46FB681344BC
:102C70002E4A1946FEF7EEF90346002B60D1264B8B
:102C80001868D7F8842013469B0013449B001A460B
:102C9000FB68134407F164021946FEF79DFA07F139
:102CA000640323491846FDF793FA0346002B05D128
:102CB000D7F88C30002283F820201EE207F164034D
:102CC0001C491846FDF784FA0346002B05D1D7F8B6
:102CD0008C30012283F820200FE207F164031649AB
:102CE0001846FDF775FA0346002B05D1D7F88C304E
:102CF000022283F8202000E207F164030F491846FE
:102D0000FDF766FA0346002B40F0F781D7F88C30C8
:102D1000032283F82020F0E1D861002010D20008BF
:102D20002CD30008D85E002038D300083CD300081C
:102D300014D2000818D2000828D2000830D20008A7
:102D4000C34B1868D7F8882013469B0013449B0098
:102D50001A46FB681344BF4A1946FEF77BF903463F
:102D6000002B2ED1BA4B1868D7F8842013469B004D
:102D700013449B001A46FB68134407F15802194696
:102D8000FEF72AFA07F15803B3491846FDF720FA6F
:102D90000346002B05D1D7F88C30002283F8212080
:102DA000ABE107F15803AD491846FDF711FA0346A8
:102DB000002B40F0A281D7F88C30012283F821202B
:102DC0009BE1A34B1868D7F8882013469B00134457
:102DD0009B001A46FB681344A14A1946FEF73AF9CC
:102DE0000346002B15D19A4B1868D7F88420134658
:102DF0009B0013449B001A46FB68134407F15002E2
:102E00001946FEF756F9D7E91423D7F88C305A62E1
:102E100073E18F4B1868D7F8882013469B00134442
:102E20009B001A46FB6813448E4A1946FEF712F9B6
:102E30000346002B16D1864B1868D7F8842013461A
:102E40009B0013449B001A46FB68134407F1480299
:102E50001946FEF72EF9D7E9122392B2D7F88C3033
:102E60009A844AE17A4B1868D7F8882013469B0069
:102E700013449B001A46FB6813447B4A1946FEF72D
:102E8000E9F80346002B3AD1714B1868D7F8842033
:102E900013469B0013449B001A46FB68134407F13A
:102EA00040021946FEF705F9D7F88C3093F8203028
:102EB000002B07D1D7E91023D2B2D7F88C3083F892
:102EC00028201AE1D7F88C3093F82030022B07D154
:102ED000D7E91023D2B2D7F88C3083F828200CE140
:102EE000D7F88C3093F82030032B40F00681D7E9D7
:102EF0001023D2B2D7F88C3083F82820FDE0544B51
:102F00001868D7F8882013469B0013449B001A4684
:102F1000FB681344554A1946FEF79CF80346002BFC
:102F200017D14B4B1868D7F8842013469B001344E5
:102F30009B001A46FB68134407F138021946FEF756
:102F4000B8F8D7E90E23D2B2D7F88C3083F828200E
:102F5000D3E03F4B1868D7F8882013469B001344F2
:102F60009B001A46FB681344414A1946FEF772F863
:102F70000346002B17D1364B1868D7F88420134628
:102F80009B0013449B001A46FB68134407F1300270
:102F90001946FEF78EF8D7E90C23D2B2D7F88C3059
:102FA00083F82B20A9E02A4B1868D7F8882013460D
:102FB0009B0013449B001A46FB6813442D4A194694
:102FC000FEF748F80346002B17D1214B1868D7F8B5
:102FD000842013469B0013449B001A46FB6813444D
:102FE00007F128021946FEF764F8D7E90A23D2B29E
:102FF000D7F88C3083F829207FE0154B1868D7F874
:10300000882013469B0013449B001A46FB68134418
:10301000194A1946FEF71EF80346002B2ED10C4B19
:103020001868D7F8842013469B0013449B001A4667
:10303000FB68134407F120021946FEF73AF8D7E976
:103040000823D2B2D7F88C3083F82A2055E000BF8D
:10305000D861002044D300084CD3000854D30008A2
:103060005CD3000868D3000874D3000878D3000844
:1030700080D3000888D3000890D30008354B186827
:10308000D7F8882013469B0013449B001A46FB6820
:103090001344314A1946FDF7DDFF0346002B2CD1BE
:1030A0002C4B1868D7F8842013469B0013449B00D0
:1030B0001A46FB68134407F114021946FEF78CF810
:1030C00007F1140325491846FDF782F80346002B43
:1030D00005D1D7F88C30002283F829200DE007F1C4
:1030E00014031F491846FDF773F80346002B04D15B
:1030F000D7F88C30012283F82920D7F89C3001338F
:10310000C7F89C30D7F89C20D7F894309A42FFF645
:1031100062ADD7F894305B000133D7F8A420134494
:10312000C7F8A430D7F8A0300133C7F8A030D7F8DB
:10313000A020D7F8A8309A42FFF614ADD7F8B830DF
:10314000084A3968786809F0B5FA00231846C0378C
:10315000BD4680BDD86100209CD30008ACD30008D8
:10316000B4D30008BCD3000880B5BAB006AFF8608D
:10317000B9607A603B60984B1B68002B05D0FB68F8
:10318000002B02D0BB68002B01DC012320E1BB68CF
:10319000C7F8B4300023C7F8CC300023C7F8C830D4
:1031A0008E4BC7F8C43007F1240380220021184653
:1031B00009F0B6FA0123C7F8C030C8E0864B18689A
:1031C000D7F8C02013469B0013449B001A46FB68A7
:1031D0001344834A1946FDF73DFF0346002B21D1D6
:1031E000D7F8C0300133D7F8B4209A421ADD7A4BB1
:1031F0001868D7F8C0305A1C13469B0013449B0034
:103200001A46FB68134407F118021946FDF751FFEF
:103210000346002B00F09380D7E906231346C7F836
:10322000CC308CE06C4B1868D7F8C02013469B005C
:1032300013449B001A46FB6813446A4A1946FDF77B
:1032400009FF0346002B20D1D7F8C0300133D7F84F
:10325000B4209A4219DD604B1868D7F8C0305A1C68
:1032600013469B0013449B001A46FB68134407F166
:1032700010021946FDF71DFF0346002B61D0D7E968
:1032800004231346C7F8C8305BE0534B1868D7F8DF
:10329000C02013469B0013449B001A46FB6813444E
:1032A000514A1946FDF7D6FE0346002B4AD1D7F8FE
:1032B000C0300133D7F8B4209A4243DDD7F8C0308C
:1032C0005A1C13469B0013449B001A46FB68134488
:1032D0005B68C7F8AC30D7F8C0305A1C13469B0067
:1032E00013449B001A46FB6813449B68C7F8A83038
:1032F000D7F8A820D7F8AC30D31AC7F8A430D7F83D
:10330000A430002B1EDDD7F8A4307F2B1ADC324B03
:103310001A68D7F8AC30D118D7F8A42007F12403E5
:10332000184609F05BFA07F12402D7F8A4301344D9
:1033300000221A7007F12403C7F8C43002E000BF6E
:1033400000E000BFD7F8C0300133C7F8C030D7F86D
:10335000C020D7F8B4309A42FFF630AF0023C7F848
:10336000BC300023C7F8B83014E02049D7F8B820A3
:1033700013465B0013441B010B441B78002B04D045
:10338000D7F8BC300133C7F8BC30D7F8B8300133B8
:10339000C7F8B830D7F8B8300F2BE6DD01F084FF5E
:1033A000C7F8B000D7F8C8300493D7F8C4300393F7
:1033B000D7F8BC3002930E4B0193D7F8B03000938E
:1033C000D7F8CC300B4A3968786809F073F90023D4
:1033D0001846D037BD4680BDD8610020E4D2000831
:1033E00010D20008F8D3000800D40008D85E0020EE
:1033F00078D4000808D4000880B483B000AF034636
:10340000FB71FB7918460C37BD465DF8047B7047AD
:1034100080B483B000AF0346FB71FB79622B02D00E
:10342000FB79632B02D14FF0000309E0FB79092BF4
:1034300004D9FB79122B01D8064B01E04FF07E53E3
:1034400007EE903AB0EE670A0C37BD465DF8047B94
:10345000704700BFD7A3703FF0B5B3B006AF786137
:103460003961FA60BB60B84B1B68002B05D07B69E3
:10347000002B02D03B69002B01DC012360E23B6999
:103480003B670023C7F8AC300123C7F8A8302DE014
:10349000AD4B1868D7F8A82013469B0013449B0037
:1034A0001A467B691344A94A1946FDF7D3FD034622
:1034B000002B16D1A44B1868D7F8A8305A1C134615
:1034C0009B0013449B001A467B69134407F13802A2
:1034D0001946FDF7EEFDD7E90E231346C7F8AC30C9
:1034E00009E0D7F8A8300133C7F8A830D7F8A820EA
:1034F0003B6F9A42CCDB4FF0FF33C7F8A430012377
:10350000C7F8A03029E0904B1868D7F8A0201346E0
:103510009B0013449B001A467B6913448C4A19464E
:10352000FDF798FD0346002B12D1D7F8A0305A1CA6
:1035300013469B0013449B001A467B6913441B7877
:10354000012B05D1D7F8A0300133C7F8A43009E02A
:10355000D7F8A0300133C7F8A030D7F8A0203B6FD0
:103560009A42D0DBD7F8A430B3F1FF3F01D1012359
:10357000E6E14FF0FF33C7F89C30D7F8A42013469C
:103580009B0013449B001A467B691344DB68FB666F
:10359000D7F8A4300133BB660023C7F8983039E070
:1035A000D7F898305B00BA6E13447B66D7F8983032
:1035B0005A00BB6E134401333B667A6E3B6F9A42EE
:1035C0002DDA3A6E3B6F9A4229DA5F4B18687A6EB1
:1035D00013469B0013449B001A467B6913445D4AC3
:1035E0001946FDF737FD0346002B0ED13A6E134600
:1035F0009B0013449B001A467B6913441B78022BE3
:1036000003D13B6EC7F89C3009E0D7F898300133FE
:10361000C7F89830D7F89820FB6E9A42C0DBD7F8ED
:103620009C30B3F1FF3F01D1012389E1D7F89C2001
:1036300013469B0013449B001A467B691344DB68C6
:10364000C7F89430D7F89430102B02DD1023C7F858
:103650009430D7F89430FB65FB6DDB014033C7F83D
:103660009030D7F89030FF2B03D84FF48073C7F811
:103670009030D7F8900008F05FFF0346BB65BB6D44
:10368000002B01D103235BE10023C7F88C30D7F86E
:103690009030C7F88830BA6DD7F88C3013442E4A72
:1036A000D7F88810184609F005F878657B6D002B6F
:1036B00004DB7B6DD7F888209A4204D8B86D08F0F7
:1036C00043FF03233CE17B6DD7F88C201344C7F8FC
:1036D0008C30D7F89020D7F88C30D31AC7F88830C0
:1036E0000023C7F88430D7F89C300133C7F8803006
:1036F0000023FB67C9E0D7F880203B6F9A4280F235
:10370000CA80D7F8802013469B0013449B001A46BA
:103710007B6913441B78042B40F0BD800A4B18686A
:10372000D7F8802013469B0013449B001A467B6900
:10373000134407F118021946FDF74EFD0023BB673D
:1037400000237B6726E000BFD861002010D200086C
:1037500080D4000888D40008E8D200087A6F1346A5
:103760005B0013441B01784A134407F11802114609
:103770001846FCF72DFD0346002B08D17A6F13463F
:103780005B0013441B01704A1344BB6705E07B6F69
:1037900001337B677B6F0F2BE0DDBB6F002B6CD0A1
:1037A000D7F88430002B1CDDD7F88C300133D7F8E4
:1037B00090209A4215D9D7F88C305A1CC7F88C2023
:1037C000BA6D13442C221A70BA6DD7F88C3013449A
:1037D00000221A70D7F89020D7F88C30D31AC7F887
:1037E000883001F061FD3865BB6F93F82C301846C6
:1037F000FFF70EFE87ED130ABA6DD7F88C30D41898
:10380000BD6FBB6F93F82C301846FDF7E1FD0646FF
:10381000BB6F93F82C301846FFF7EEFD7860F86C1C
:10382000FCF7A2FE02460B46396D0491CDE9022356
:103830007B68019300962B46444AD7F888102046AF
:1038400008F038FF78657B6D002B24DB7B6DD7F8A3
:1038500088209A421FD97B6DD7F88C201344C7F873
:103860008C30D7F89020D7F88C30D31AC7F888302E
:10387000D7F884300133C7F88430D7F8803001336B
:10388000C7F88030FB6F0133FB67FA6FD7F89430CD
:103890009A42FFF630AFD7F88C300233D7F8902039
:1038A0009A420FD9D7F88C305A1CC7F88C20BA6DC1
:1038B00013445D221A70BA6DD7F88C30134400227D
:1038C0001A7005E0224AD7F89010B86D08F0F2FEA1
:1038D000C023BB64B86C08F02FFE03467B647B6C8E
:1038E000002B04D1B86D08F02FFE032328E0BA6C3A
:1038F000796C1848FEF7D2FE0346002B05D07B6C8E
:10390000134A1188927819809A70134B1B68DBB2A6
:10391000013B87F8433097F8433002937B6C019367
:10392000BB6D0093D7F8AC300C4AB968F86808F062
:10393000C1FEB86D08F008FE786C08F005FE0023A3
:103940001846B437BD46F0BDD85E00208CD40008C0
:10395000E4D200088000002044030020D4D40008F2
:10396000B0B59CB006AFF860B9607A603B60894B37
:103970001B68002B05D0FB68002B02D0BB68002B16
:1039800001DC012302E1B968F868FEF7EFFC386357
:1039900001F08AFCF86200237B6500233B650FE0A1
:1039A0007D493A6D13465B0013441B010B441B78A1
:1039B000002B02D07B6D01337B653B6D01333B6592
:1039C0003B6D0F2BECDD7A6D13465B0013445B01FE
:1039D0002033FB64FB6CFF2B02D84FF48073FB6435
:1039E000F86C08F0A9FD0346BB62BB6A002B01D14D
:1039F0000123CBE0BB6A00221A70FB6CBB6400237E
:103A00007B6400233B640023FB6375E06249FA6B2F
:103A100013465B0013441B010B441B78002B67D03B
:103A20003B6C002B14DD7B6C0133FA6C9A420FD98E
:103A30007B6C5A1C7A64BA6A13442C221A70BA6AD4
:103A40007B6C134400221A70FA6C7B6CD31ABB6433
:103A50005149FA6B13465B0013441B010B4420339E
:103A60001B781846FEF7C2FC78624B49FA6B134686
:103A70005B0013441B010B442C331B781846FDF7E5
:103A8000A7FC3862BA6A7B6CD418FA6B13465B00E9
:103A900013441B01404A9D183F49FA6B13465B00D3
:103AA00013441B010B442C331B781846FFF7A4FC6E
:103AB000034602933B6A01937B6A00932B46374A85
:103AC000B96C204608F0F6FDF861FB69002B16DBA7
:103AD000FB69BA6C9A4212D9FB697A6C13447B6415
:103AE000FA6C7B6CD31ABB643B6C01333B6400E023
:103AF00000BFFB6B0133FB63FB6B0F2B86DD284B99
:103B00001B68BB63BB6B052B01DD0523BB63BB6B74
:103B10008C2202FB03F320337B637B6B7F2B01D86A
:103B200080237B63786B08F007FD0346BB61BB69AC
:103B3000002B04D1B86A08F007FD012326E0BA6B18
:103B4000796BB869FEF72CFE154B1B687B61144B33
:103B50001B680F2B01DD134B00E0134B3B617B69AE
:103B60000493BB690393BB6A02933B690193FB6AAD
:103B700000933B6B0D4A3968786808F09BFDB86A82
:103B800008F0E2FCB86908F0DFFC0023184658375B
:103B9000BD46B0BDD8610020D85E00201CD500080D
:103BA0004403002054D500085CD5000864D5000803
:103BB00080B59CB000AFF860B9607A603B60994B0B
:103BC0001B68002B05D0FB68002B02D0BB68002BC4
:103BD00001DC012393E1B968F868FEF7C7FBF864DC
:103BE0004FF0FF33FB660123BB6623E08D4B186863
:103BF000BA6E13469B0013449B001A46FB6813449D
:103C0000894A1946FDF726FA0346002B0FD1BB6EF1
:103C10005A1C13469B0013449B001A46FB6813442E
:103C20001B78012B03D1BB6E0133FB6606E0BB6E34
:103C30000133BB66BA6EBB689A42D7DBFB6EB3F149
:103C4000FF3F01D101235AE14FF0FF337B664FF074
:103C5000FF333B66FA6E13469B0013449B001A46E3
:103C6000FB681344DB68BB64FB6E01337B64002399
:103C7000FB6552E0FB6D5B007A6C13443B64FB6DAB
:103C80005A007B6C13440133FB633A6CBB689A4265
:103C900047DAFA6BBB689A4243DA624B18683A6CAF
:103CA00013469B0013449B001A46FB6813445F4A6B
:103CB0001946FDF7CFF90346002B0DD1FA6B1346D9
:103CC0009B0013449B001A46FB6813441B78042B8B
:103CD00002D1FB6B7B661DE0524B18683A6C1346B1
:103CE0009B0013449B001A46FB681344504A194634
:103CF000FDF7B0F90346002B0CD1FA6B13469B007D
:103D000013449B001A46FB6813441B78082B01D10F
:103D1000FB6B3B66FB6D0133FB65FA6DBB6C9A4236
:103D2000A8DB7B6EB3F1FF3F03D03B6EB3F1FF3FE7
:103D300001D10123E3E007F11403202200211846FA
:103D400008F0EEFC374B18687A6E13469B0013445C
:103D50009B001A46FB68134407F114021946FDF74D
:103D60003BFA3A6E13469B0013449B001A46FB68CD
:103D7000134499683A6E13469B0013449B001A46FD
:103D8000FB6813445B68CB1ABB63264B19683A6E19
:103D900013469B0013449B001A46FB6813445B6860
:103DA0000B447B63BB6B042B0BD104222149786B42
:103DB00008F0BEFC0346002B03D1012387F85B30DB
:103DC00010E0BB6B052B0BD105221B49786B08F06B
:103DD000AFFC0346002B03D1002387F85B3001E0E2
:103DE00003238CE007F1130207F114031146184670
:103DF000FEF72AFB0346002B0FD097F85B30002B11
:103E000005D0FB7C19460D4800F0B8FD70E0FB7C46
:103E100019460A4800F0DCFD6AE000237B650023B8
:103E20003B653EE0D861002080D40008CCD5000876
:103E3000D8D5000854D500085CD5000848030020F8
:103E400031493A6D13465B0013441B010B441B7848
:103E5000002B23D02C493A6D13465B0013441B0101
:103E60000B4420331B78032B18D13A6D13465B00AB
:103E700013441B01244A134407F114021146184647
:103E8000FCF7A6F90346002B08D13A6D13465B00F8
:103E900013441B011C4A13447B6505E03B6D013351
:103EA0003B653B6D0F2BCBDD7B6D002B01D10223DE
:103EB00025E07B6D93F82830002B04D07B6D93F8C0
:103EC0002830142B01D9032319E097F85B30002B1D
:103ED00007D07B6D93F8283019460C4800F04EFD52
:103EE00006E07B6D93F828301946084800F070FD15
:103EF000FB6C074A3968786808F0DCFB0023184639
:103F00007037BD4680BD00BFD85E0020480300204A
:103F1000BCD3000880B59EB000AFF860B9607A608D
:103F20003B60A94B1B68002B05D0FB68002B02D01F
:103F3000BB68002B01DC012379E1B968F868FEF762
:103F400015FAB8654FF0FF337B6701233B6723E029
:103F50009D4B18683A6F13469B0013449B001A460A
:103F6000FB681344994A1946FDF774F80346002B81
:103F70000FD13B6F5A1C13469B0013449B001A46FB
:103F8000FB6813441B78012B03D13B6F01337B6724
:103F900006E03B6F01333B673A6FBB689A42D7DB61
:103FA0007B6FB3F1FF3F01D1012340E14FF0FF33BD
:103FB000FB664FF0FF33BB667A6F13469B001344DA
:103FC0009B001A46FB681344DB687B657B6F0133FB
:103FD0003B6500237B6652E07B6E5B003A6D1344C9
:103FE000FB647B6E5A003B6D13440133BB64FA6C77
:103FF000BB689A4247DABA6CBB689A4243DA724BA2
:104000001868FA6C13469B0013449B001A46FB6821
:1040100013446F4A1946FDF71DF80346002B0DD1D6
:10402000BA6C13469B0013449B001A46FB6813446A
:104030001B78042B02D1BB6CFB661DE0624B186839
:10404000FA6C13469B0013449B001A46FB6813440A
:10405000604A1946FCF7FEFF0346002B0CD1BA6CF0
:1040600013469B0013449B001A46FB6813441B78BD
:10407000082B01D1BB6CBB667B6E01337B667A6E0D
:104080007B6D9A42A8DBFB6EB3F1FF3F03D0BB6EA2
:10409000B3F1FF3F01D10123C9E007F1240320223E
:1040A0000021184608F03CFB474B1868FA6E13468F
:1040B0009B0013449B001A46FB68134407F124023B
:1040C0001946FDF789F84FF000024FF00003C7E9E9
:1040D00006233D4B1868BA6E13469B0013449B00A1
:1040E0001A46FB68134407F118021946FCF7E1FF72
:1040F0000346002B01D1032399E0D7E9062313439C
:1041000007D0D7E906234EF661218A4273F10003F6
:1041100001D305238BE0D7E9062313467B6407F11F
:10412000170207F1240311461846FEF78DF90346DE
:10413000002B57D100233B660023FB6530E0264966
:10414000FA6D13465B0013441B010B441B78002BD4
:1041500023D02149FA6D13465B0013441B010B4425
:1041600020331B78032B18D1FA6D13465B001344E0
:104170001B01194A134407F1240211461846FCF7A3
:1041800027F80346002B08D1FA6D13465B00134451
:104190001B01114A13443B6605E0FB6D0133FB65CF
:1041A000FB6D0F2BCBDD3B6E002B01D102233EE0DC
:1041B0003B6E93F82830002B04D03B6E93F82830E8
:1041C000142B0BD9032332E0D861002080D40008DF
:1041D000CCD50008E0D50008D85E00203B6E93F8EF
:1041E0002830FB7572B600BF134B1B78DBB2002B77
:1041F00003D062B600BF062319E0FB7D19460F48C5
:1042000000F0BCFBFA7D0E4B1A700E4B1A687B6CEB
:1042100013440D4A1360084B01221A7062B600BFA6
:10422000BB6D0A4A3968786808F044FA00231846DA
:104230007837BD4680BD00BF74560020480300207B
:10424000755600207056002078560020BCD3000818
:1042500080B5BCB000AFF860B9607A603B60C94B14
:104260001B68002B05D0FB68002B02D0BB68002B1D
:1042700001DC012305E3B968F868FEF777F8C7F8B1
:10428000BC004FF0FF33C7F8EC300123C7F8E8302B
:1042900029E0BC4B1868D7F8E82013469B0013446C
:1042A0009B001A46FB681344B74A1946FCF7D2FE36
:1042B0000346002B12D1D7F8E8305A1C13469B0056
:1042C00013449B001A46FB6813441B78012B05D14D
:1042D000D7F8E8300133C7F8EC3009E0D7F8E83018
:1042E0000133C7F8E830D7F8E820BB689A42D0DB42
:1042F000D7F8EC30B3F1FF3F01D10123C1E24FF019
:10430000FF33C7F8E4304FF0FF33C7F8E030D7F899
:10431000EC2013469B0013449B001A46FB68134491
:10432000DB68C7F8B830D7F8EC300133C7F8B430E1
:104330000023C7F8DC3064E0D7F8DC305B00D7F846
:10434000B4201344C7F8B030D7F8DC305A00D7F89F
:10435000B43013440133C7F8AC30D7F8B020BB6891
:104360009A4254DAD7F8AC20BB689A424FDA854BB0
:104370001868D7F8B02013469B0013449B001A46D8
:10438000FB681344814A1946FCF764FE0346002B80
:1043900010D1D7F8AC2013469B0013449B001A465B
:1043A000FB6813441B78042B04D1D7F8AC30C7F852
:1043B000E43021E0734B1868D7F8B02013469B0017
:1043C00013449B001A46FB681344714A1946FCF7D4
:1043D00041FE0346002B0FD1D7F8AC2013469B00BB
:1043E00013449B001A46FB6813441B78022B03D12D
:1043F000D7F8AC30C7F8E030D7F8DC300133C7F875
:10440000DC30D7F8DC20D7F8B8309A4294DBD7F804
:10441000E430B3F1FF3F04D0D7F8E030B3F1FF3F11
:1044200001D101232DE207F1780320220021184653
:1044300008F076F9534B1868D7F8E42013469B0030
:1044400013449B001A46FB68134407F1780219468F
:10445000FCF7C2FE07F1770207F178031146184610
:10446000FDF7F2FF0346002B5CD10023C7F8D830DC
:104470000023C7F8D43037E04649D7F8D420134694
:104480005B0013441B010B441B78002B27D04149D0
:10449000D7F8D42013465B0013441B010B44203390
:1044A0001B78032B1BD1D7F8D42013465B00134491
:1044B0001B01384A134407F1780211461846FBF7EE
:1044C00087FE0346002B0AD1D7F8D42013465B00A1
:1044D00013441B012F4A1344C7F8D83008E0D7F81B
:1044E000D4300133C7F8D430D7F8D4300F2BC3DD24
:1044F000D7F8D830002B01D10223C2E1D7F8D83049
:1045000093F82830002B05D0D7F8D83093F828300E
:10451000142B01D90323B4E1D7F8D83093F828300D
:1045200087F87730D7F8E02013469B0013449B00B0
:104530001A46FB681344DB68C7F8A830D7F8A830E0
:10454000002B01DC03239CE1D7F8A8300A2B01DD06
:10455000052396E107F14C0328220021184608F0B4
:10456000DFF807F1240328220021184608F0D8F8C4
:10457000D7F8E0300133C7F8D0300023C7F8CC308B
:1045800018E100BFD861002080D40008CCD5000815
:10459000ECD50008D85E0020D7F8D020BB689A423E
:1045A0000BDAD7F8D02013469B0013449B001A4621
:1045B000FB6813441B78012B01D0032361E1D7F87A
:1045C000D02013469B0013449B001A46FB681344FB
:1045D000DB68C7F8A430D7F8D0300133C7F8A03073
:1045E000002387F8CB30002387F8CA300023C7F8B0
:1045F000C430C0E0D7F8C4305B00D7F8A020134423
:10460000C7F89C30D7F8C4305A00D7F8A03013440C
:104610000133C7F89830D7F89C20BB689A4280F2E3
:10462000B180D7F89820BB689A4280F2AB80974B54
:104630001868D7F89C2013469B0013449B001A4629
:10464000FB681344924A1946FCF704FD0346002B0D
:104650003FD1D7F8982013469B0013449B001A467D
:10466000FB6813441B78082B33D14FF000024FF046
:104670000003C7E90623854B1868D7F8982013462E
:104680009B0013449B001A46FB68134407F1180271
:104690001946FCF70EFD0346002B0BD0D7E9062385
:1046A000134307D0D7E906234EF661218A4273F1FE
:1046B000000301D30523E4E0D7E90623D7F8CC3083
:1046C0009B00F0333B4443F8A42C012387F8CB3004
:1046D0004CE06E4B1868D7F89C2013469B0013449F
:1046E0009B001A46FB6813446A4A1946FCF7B2FC61
:1046F0000346002B3AD1D7F8982013469B00134469
:104700009B001A46FB6813441B78082B2ED14FF0F0
:1047100000024FF00003C7E904235C4B1868D7F888
:10472000982013469B0013449B001A46FB681344D1
:1047300007F110021946FCF7BCFC0346002B07D01A
:10474000D7E904234EF661218A4273F1000301D3B5
:10475000052396E0D7E90423D7F8CC309B00F0334B
:104760003B4443F8CC2C012387F8CA30D7F8C43037
:104770000133C7F8C430D7F8C420D7F8A4309A4220
:10478000FFF638AF97F8CB30002B03D097F8CA303C
:10479000002B01D1032374E0D7F8A4305B00013370
:1047A000D7F8D0201344C7F8D030D7F8CC30013335
:1047B000C7F8CC30D7F8CC20D7F8A8309A42FFF60B
:1047C000EBAE72B600BF344B1B78DBB2002B04D1CA
:1047D000324B1B78DBB2002B03D062B600BF06233E
:1047E0004FE00023C7F8C0301CE0D7F8C0309B0072
:1047F000F0333B4453F8A42C2949D7F8C03041F892
:104800002320D7F8C0309B00F0333B4453F8CC2C26
:104810002449D7F8C03041F82320D7F8C0300133FD
:10482000C7F8C030D7F8C020D7F8A8309A42DCDBF0
:1048300097F877201C4B1A701C4B00221A70D7F87F
:10484000A830DAB21A4B1A701A4B01221A70144BA4
:104850001A68194B1B681344184A13600F4B012246
:104860001A7097F877301946154800F087F862B645
:1048700000BFD7F8BC30134A3968786807F01AFFD0
:1048800000231846F037BD4680BD00BFD861002028
:10489000E0D50008F8D50008745600207C560020AA
:1048A00088560020B05600207D5600207F560020FC
:1048B000805600207E56002070560020845600202E
:1048C00048030020BCD3000880B58EB004AFF86068
:1048D000B9607A603B60264B1B68002B05D0FB68F3
:1048E000002B02D0BB68002B01DC01233CE0B9683F
:1048F000F868FDF73BFDF8611E4B1B68BB611D4B63
:104900001B687B627B6A052B01DD05237B627B6A6A
:104910008C2202FB03F320333B623B6A7F2B01D8DE
:1049200080233B62386A07F007FE03467B617B69A0
:10493000002B01D1012317E07A6A396A7869FDF703
:104940002FFF0C4B1B683B613B6902937B69019312
:10495000BB690093FB69084A3968786807F0AAFECA
:10496000786907F0F1FD002318462837BD4680BD61
:10497000D86100204403002000D6000880B582B032
:1049800000AF78600B46FB70FB780E2B09D8FB78E4
:10499000002B06D0FB7801221946786800F00EF94A
:1049A00010E0FB780E2B0DD9FB78142B0AD8FB787E
:1049B0000F3B082202FA03F39BB201221946034877
:1049C00001F0AAF900BF0837BD4680BD00040048C9
:1049D00080B582B000AF78600B46FB70FB780E2B81
:1049E00009D8FB78002B06D0FB780022194678689E
:1049F00000F0E4F810E0FB780E2B0DD9FB78142BB7
:104A00000AD8FB780F3B082202FA03F39BB200227C
:104A10001946034801F080F900BF0837BD4680BD44
:104A20000004004880B489B000AF78600023BB6107
:104A3000194B5B687B61194B1A687B6802FB03F3B7
:104A40003B61154B9B68FB61134B9B68FB60FA68ED
:104A5000FB699A42F8D0FA68FB699A4206D2FA6971
:104A6000FB68D31ABA691344BB6107E07A69FB6833
:104A7000D21AFB691344BA691344BB61FB68FB613A
:104A8000BA693B699A4200D2DEE700BF00BF243713
:104A9000BD465DF8047B704710E000E0DC6100205B
:104AA00080B500AF0F4B1B680E4A23F44023136000
:104AB0000C4B1B680B4A43F4802313600A4B012202
:104AC0001A600A4B01221A600420FFF7ABFF064B65
:104AD00000221A600420FFF7A5FF044B00221A6091
:104AE00000BF80BD00040048A4820042A0820042B2
:104AF00080B500AF114B1B68104A23F440231360AC
:104B00000E4B1B680D4A43F4802313600C4B0022AC
:104B10001A600C4B00221A600420FFF783FF084B39
:104B200001221A600420FFF77DFF064B01221A6064
:104B30000420FFF777FF00BF80BD00BF00040048DE
:104B4000A0820042A482004280B582B000AF002360
:104B5000FB71164B1B68154A23F440231360134B5B
:104B6000124A1B681360124B01221A600120FFF7E2
:104B700059FF104B01221A600120FFF753FF09E093
:104B8000FB790133FB71FB79FA2B03D9FFF7B0FFF7
:104B9000012307E0084B1B68002BF1D1054B0022D5
:104BA0001A60002318460837BD4680BD000400483F
:104BB000A4820042A08200422482004280B586B0D6
:104BC00002AF78600B46FB701346BB70FB780F2B6F
:104BD0006FD8FB78072B22D8BB78002B0ED0FB7840
:104BE0000833012202FA03F31AB2344B1B881BB2BA
:104BF00013431BB29AB2314B1A8032E0FB78083370
:104C0000012202FA03F31BB2DB431AB22B4B1B88BF
:104C10001BB213401BB29AB2284B1A8021E0BB781A
:104C2000002B0ED0FB78083B012202FA03F31AB2E4
:104C3000224B1B881BB213431BB29AB21F4B1A8024
:104C40000FE0FB78083B012202FA03F31BB2DB43BF
:104C50001AB21A4B1B881BB213401BB29AB2174BE5
:104C60001A80164B1B881B0A9BB2DBB23B73134B9B
:104C70001B88DBB27B73FFF713FFFFF765FF4FF075
:104C8000FF33009301230E4A4221786801F0F8F8BF
:104C9000FFF75AFF07F10C024FF0FF330093022396
:104CA0004221786801F0ECF8FFF74EFFFFF720FF94
:104CB00000E000BF1037BD4680BD00BFE0610020AE
:104CC0000100002080B586B002AF786000233B73FE
:104CD00000237B73114B00221A80FFF7E1FEFFF7E0
:104CE00033FF4FF0FF33009301230D4A42217868D0
:104CF00001F0C6F8FFF728FF07F10C024FF0FF3371
:104D0000009302234221786801F0BAF8FFF71CFFF4
:104D1000FFF7EEFE00BF1037BD4680BDE06100200A
:104D20000100002080B582B000AF154B1B6E144A05
:104D300043F001031366124B1B6E03F001037B600B
:104D40007B680F4B9B6D0E4A43F0805393650C4B71
:104D50009B6D03F080533B603B6800220F216FF096
:104D6000010000F088FB00220521012000F083FBF8
:104D7000012000F09CFB00BF0837BD4680BD00BF8E
:104D80000010024080B5A0B000AF786007F16C035E
:104D900000221A605A609A60DA601A6107F1100303
:104DA0005C220021184607F0BBFC7B681B681F4A89
:104DB000934236D14FF480733B610023BB6407F10B
:104DC0001003184602F010FB0346002B01D0FDF73C
:104DD00077FA174BDB6C164A43F00403D364144B89
:104DE000DB6C03F00403FB60FB680323FB66122308
:104DF0003B6700237B670323BB670423FB6707F143
:104E00006C0319460B4800F00DFE094B9B6D084AD8
:104E100043F400039365064B9B6D03F40003BB60F2
:104E2000BB6800BF8037BD4680BD00BF005C00404E
:104E3000001002400008004880B584B000AF7860E0
:104E40007B681B680D4A934213D10D4B9B6D0C4A36
:104E500043F0100393650A4B9B6D03F01003FB6056
:104E6000FB6800220521362000F005FB362000F00B
:104E70001EFB00BF1037BD4680BD00BF00100040C4
:104E80000010024080B5A2B000AF786007F1740353
:104E900000221A605A609A60DA601A6107F11803FA
:104EA0005C220021184607F03BFC7B681B685B4ACC
:104EB000934241D10223BB610023FB6307F1180336
:104EC000184602F091FA0346002B01D0FDF7F8F9DD
:104ED000534B9B6D524A43F400339365504B9B6D8B
:104EE00003F400337B617B694D4BDB6C4C4A43F030
:104EF0000103D3644A4BDB6C03F001033B613B6964
:104F00000C237B670223BB670023FB670323C7F8DF
:104F100080300723C7F8843007F1740319464FF037
:104F2000904000F07FFD00220521262000F0A3FA2A
:104F3000262000F0BCFA6DE07B681B68394A93427A
:104F400068D10423BB6100233B6407F118031846B2
:104F500002F04AFA0346002B01D0FDF7B1F9304BBD
:104F60009B6D2F4A43F4802393652D4B9B6D03F477
:104F70008023FB60FB682A4BDB6C294A43F0040367
:104F8000D364274BDB6C03F00403BB60BB683023A6
:104F90007B670223BB670023FB670323C7F88030CE
:104FA0000723C7F8843007F1740319461E4800F040
:104FB00039FD1E4B1E4A1A601C4B02225A601B4BC5
:104FC00000229A60194B0022DA60184B80221A6185
:104FD000164B00225A61154B00229A61134B202276
:104FE000DA61124B00221A62104800F07BFA034685
:104FF000002B01D0FDF764F97B680C4A5A670B4A15
:105000007B68936200220521272000F034FA2720D4
:1050100000F04DFA00BF8837BD4680BD0044004017
:10502000001002400048004000080048F80400203A
:105030003000024080B400AF00BFFDE780B400AF95
:1050400000BFFDE780B400AF00BFFDE780B400AF54
:1050500000BFFDE780B400AF00BFFDE780B400AF44
:1050600000BFBD465DF8047B7047000080B500AF0F
:1050700000F006F906F0E2F90346012B01D006F034
:10508000DBFF044B1B8801339AB2024B1A8000BF2E
:1050900080BD00BF6E56002080B500AF01F036FB2A
:1050A00000BF80BD80B500AF024800F0B9FB00BF73
:1050B00080BD00BFF804002080B500AF024803F0B7
:1050C000EBF800BF80BD00BFE803002080B500AF53
:1050D000024803F0E1F800BF80BD00BF700400206B
:1050E00080B500AF024802F045FD00BF80BD00BFA3
:1050F0009C03002080B586B000AF7860144A154B41
:10510000D31A7B617B693B61134B1B68002B02D177
:10511000114B124A1A60104B1A687B6813443A69A3
:105120009A4207D207F026FB03460C221A604FF082
:10513000FF3309E0084B1B68FB60074B1A687B686C
:105140001344054A1360FB6818461837BD4680BDF6
:1051500000C0002000040000E4610020407C00202A
:1051600080B400AF064BD3F88830054A43F470038F
:10517000C2F8883000BFBD465DF8047B704700BFB1
:1051800000ED00E0DFF834D0FFF7EAFF0C480D49EE
:105190000D4A002302E0D458C4500433C4188C4292
:1051A000F9D30A4A0A4C002301E013600432A242F8
:1051B000FBD307F0E5FAFCF76BFAFEE700C000202E
:1051C000000000206400002048D700086400002090
:1051D0003C7C0020FEE780B582B000AF0023FB716D
:1051E000032000F03DF90F2000F00EF80346002BDD
:1051F00002D00123FB7101E0FFF794FDFB79184613
:105200000837BD4680BD000080B584B000AF78602F
:105210000023FB73174B1B78002B23D0164B1A6807
:10522000144B1B7819464FF47A73B3FBF1F3B2FBBE
:10523000F3F3184600F049F90346002B0FD17B68C1
:105240000F2B09D8002279684FF0FF3000F013F9D6
:105250000A4A7B68136007E00123FB7304E0012323
:10526000FB7301E00123FB73FB7B18461037BD463F
:1052700080BD00BF0C0000200400002008000020BA
:1052800080B400AF064B1B781A46064B1B681344CC
:10529000044A136000BFBD465DF8047B704700BF41
:1052A0000C000020E861002080B400AF034B1B68B5
:1052B0001846BD465DF8047B704700BFE8610020DA
:1052C00080B485B000AF78607B6803F00703FB60B3
:1052D0000C4BDB68BB60BA684FF6FF031340BB6042
:1052E000FB681A02BB68134343F0BF6343F4003307
:1052F000BB60044ABB68D36000BF1437BD465DF88D
:10530000047B704700ED00E080B400AF044BDB6825
:105310001B0A03F007031846BD465DF8047B70477F
:1053200000ED00E080B483B000AF0346FB7197F955
:105330000730002B0BDBFB7903F01F02074997F9BD
:1053400007305B09012000FA02F241F8232000BF78
:105350000C37BD465DF8047B704700BF00E100E0FC
:1053600080B483B000AF03463960FB7197F9073012
:10537000002B0ADB3B68DAB20C4997F907301201BF
:10538000D2B20B4483F800230AE03B68DAB2084942
:10539000FB7903F00F03043B1201D2B20B441A76DF
:1053A00000BF0C37BD465DF8047B704700E100E0AC
:1053B00000ED00E080B489B000AFF860B9607A60B9
:1053C000FB6803F00703FB61FB69C3F10703042BD0
:1053D00028BF0423BB61FB690433062B02D9FB6998
:1053E000033B00E000237B614FF0FF32BB6902FA10
:1053F00003F3DA43BB681A407B699A404FF0FF31F0
:105400007B6901FA03F3D9437B680B4013431846C9
:105410002437BD465DF8047B7047000080B582B03C
:1054200000AF78607B68013BB3F1807F01D301233B
:105430000FE00A4A7B68013B53600F214FF0FF30B9
:10544000FFF78EFF054B00229A60044B07221A607B
:10545000002318460837BD4680BD00BF10E000E0BD
:1054600080B582B000AF78607868FFF729FF00BF91
:105470000837BD4680BD80B586B000AF0346B96031
:105480007A60FB7300237B61FFF73EFF78617A68E7
:10549000B9687869FFF78EFF024697F90F30114619
:1054A0001846FFF75DFF00BF1837BD4680BD80B5C9
:1054B00082B000AF0346FB7197F907301846FFF73B
:1054C00031FF00BF0837BD4680BD80B582B000AF58
:1054D00078607868FFF7A2FF034618460837BD4694
:1054E00080BD000080B483B000AF78607B68002B83
:1054F00001D1012398E07B681B681A464D4B9A4204
:105500000FD87B681B681A464B4B13444B4AA2FBCF
:1055100003231B099A007B685A647B68484A1A6413
:105520000EE07B681B681A46464B1344434AA2FBB5
:1055300003231B099A007B685A647B68424A1A64F9
:105540007B68022283F825207B681B681B687A68C9
:10555000126823F4FF4323F0700313607B681B6819
:1055600019687B689A687B68DB681A437B681B69EB
:105570001A437B685B691A437B689B691A437B68A3
:10558000DB691A437B681B6A1A437B681B680A4302
:105590001A607B689B68B3F5804F39D07B681B6CC1
:1055A000274A93421AD1294B1A687B685B6C03F037
:1055B0001C030F2101FA03F3DB43244913400B6062
:1055C000224B1A687B6859687B685B6C03F01C038C
:1055D00001FA03F31D4913430B6019E01C4B1A68D1
:1055E0007B685B6C03F01C030F2101FA03F3DB43C0
:1055F000174913400B60164B1A687B6859687B6823
:105600005B6C03F01C0301FA03F3114913430B60B5
:105610007B680022DA637B68012283F825207B689F
:10562000002283F82420002318460C37BD465DF87D
:10563000047B704707040240F8FFFDBFCDCCCCCC03
:1056400000000240F8FBFDBF00040240A800024039
:10565000A804024080B586B000AFF860B9607A60F7
:105660003B600023FB75FB6893F82430012B01D1CC
:1056700002234EE0FB68012283F82420FB6893F8A4
:105680002530DBB2012B3AD1FB68022283F82520BA
:10569000FB680022DA63FB681B681A68FB681B68FA
:1056A00022F001021A603B687A68B968F86800F075
:1056B00089F9FB681B6B002B08D0FB681B681A6814
:1056C000FB681B6842F00E021A600FE0FB681B6863
:1056D0001A68FB681B6822F004021A60FB681B68EA
:1056E0001A68FB681B6842F00A021A60FB681B68B4
:1056F0001A68FB681B6842F001021A6008E0FB6848
:105700008022DA63FB68002283F824200123FB75E2
:10571000FB7D18461837BD4680BD80B483B000AF0E
:1057200078607B68002B01D1012331E07B6893F81E
:105730002530DBB2022B08D07B680422DA637B6859
:10574000002283F82420012322E07B681B681A686A
:105750007B681B6822F001021A607B681B681A686C
:105760007B681B6822F00E021A607B685B6C03F09A
:105770001C027B681B6C012101FA02F25A607B68F3
:10578000012283F825207B68002283F8242000234F
:1057900018460C37BD465DF8047B704780B584B071
:1057A00000AF78600023FB737B6893F82530DBB291
:1057B000022B05D07B680422DA630123FB7329E006
:1057C0007B681B681A687B681B6822F001021A60FC
:1057D0007B681B681A687B681B6822F00E021A60DF
:1057E0007B685B6C03F01C027B681B6C012101FA77
:1057F00002F25A607B68012283F825207B68002230
:1058000083F824207B689B6B002B03D07B689B6B09
:1058100078689847FB7B18461037BD4680BD00006E
:1058200080B584B000AF78607B681B6C1B68FB6040
:105830007B681B681B68BB607B685B6C03F01C03A8
:1058400004229A40FB681340002B27D0BB6803F06A
:105850000403002B22D07B681B681B6803F0200325
:10586000002B07D17B681B681A687B681B6822F0D5
:1058700004021A607B685B6C03F01C027B681B6C83
:10588000042101FA02F25A607B681B6B002B00F0C6
:1058900081807B681B6B786898477BE07B685B6CDA
:1058A00003F01C0302229A40FB681340002B3DD0FA
:1058B000BB6803F00203002B38D07B681B681B68B1
:1058C00003F02003002B0BD17B681B681A687B68F0
:1058D0001B6822F00A021A607B68012283F82520E7
:1058E0007B681B681A462E4B9A4209D97B685B6C11
:1058F00003F01C032B4A022101FA03F3536008E072
:105900007B685B6C03F01C03274A022101FA03F356
:1059100053607B68002283F824207B68DB6A002BBD
:1059200038D07B68DB6A7868984733E07B685B6CCB
:1059300003F01C0308229A40FB681340002B2AD076
:10594000BB6803F00803002B25D07B681B681A682E
:105950007B681B6822F00E021A607B685B6C03F0A8
:105960001C027B681B6C012101FA02F25A607B6801
:105970000122DA637B68012283F825207B680022FC
:1059800083F824207B685B6B002B04D07B685B6B07
:105990007868984700BF00BF1037BD4680BD00BF84
:1059A00080000240000402400000024080B483B046
:1059B00000AF78607B68DB6B18460C37BD465DF83E
:1059C000047B704780B485B000AFF860B9607A603E
:1059D0003B60FB685B6C03F01C02FB681B6C0121E5
:1059E00001FA02F25A60FB681B683A685A60FB6869
:1059F0009B68102B08D1FB681B687A689A60FB686B
:105A00001B68BA68DA6007E0FB681B68BA689A60CE
:105A1000FB681B687A68DA6000BF1437BD465DF822
:105A2000047B704780B487B000AF78603960002392
:105A30007B6154E13B681A6801217B6901FA03F339
:105A40001340FB60FB68002B00F046813B685B68FD
:105A500003F00303012B05D03B685B6803F00303ED
:105A6000022B30D17B689B683B617B695B00032222
:105A700002FA03F3DB433A6913403B613B68DA689F
:105A80007B695B0002FA03F33A6913433B617B686D
:105A90003A699A607B685B683B6101227B6902FA24
:105AA00003F3DB433A6913403B613B685B681B09C6
:105AB00003F001027B6902FA03F33A6913433B6185
:105AC0007B683A695A603B685B6803F00303032B09
:105AD00017D07B68DB683B617B695B00032202FABD
